:030000000205FCFA
:0C05FC00787FE4F6D8FD758119020643F3
:1008620074656D70657261747572650000000000D8
:010872000085
:080897000614C9E3CACFB6C87C
:100688001208391208097BFF7A0879627F801207FD
:100698008E7FC71208837F4312088D120822120426
:1006A800687FF47E011207EB309817C2988599137A
:1006B8001208221204681208737FF47E011207EBF5
:0606C80080C4C29980C04D
:040468008E088F0962
:10046C00780A7C007D007BFF7A08796E7E007F0520
:10047C00120390C3E5086480948050227FC0120858
:10048C008375992D3099FDC2997F2D12088DE50940
:10049C001509700215086309FF6308FF80127FC0FD
:1004AC001208837F2B12088D75992B3099FDC299F8
:1004BC00AC08AD09EC1202068F128E118D108C0F48
:1004CC00E4FFFE7DC87C40AB12AA11A910A80F1244
:1004DC0000FBE4FBFAF9783F12000A12023F8E0887
:1004EC008F09AE08AF097C277D101203CF8F0AAE9F
:1004FC0008AF097C277D101203CF7E037FE8CFCD98
:10050C00CFCECCCE1203CF8F0BAE08AF097C037DC0
:10051C00E81203CF7E007F64CFCDCFCECCCE1203BA
:10052C00CF8F0CAE08AF097C007D641203CF7E0028
:10053C007F0ACFCDCFCECCCE1203CF8F0DAE08AF6E
:10054C00097C007D0A1203CF8D0E7FC1120883E552
:10055C000A2430FF12088DE50A2430F5993099FDF4
:10056C00C2997FC2120883E50B2430FF12088DE577
:10057C000B2430F5993099FDC2997FC3120883E59D
:10058C000C2430FF12088DE50C2430F5993099FDC0
:10059C00C2997FC41208837F2E12088D75992E3054
:1005AC0099FDC2997FC5120883E50D2430FF12080E
:1005BC008DE50D2430F5993099FDC2997FC612084E
:1005CC0083E50E2430FF12088DE50E2430F59930AA
:1005DC0099FDC299E4FFEFC3940674809480500F88
:0F05EC0074142FF8E6F5993099FDC2990F80E746
:0105FB0022DD
:10083900758920759850758DFD858D8BE4F587D266
:06084900AFD2ACD28E22FA
:10087300E513B44103C2A022E513B44202D2A0227D
:10071000C2A58F807F017E00120721D2A77F057EB0
:0107200000D8
:10072100D3EF9400EE940040257DC7EDD39400747F
:1007310080948040127C01ECD394007480948040BA
:0E074100031C80F31D80E4EF1F70D51E80D2D4
:01074F002287
:0A088300C2A7C2A6120710C2A722E6
:0A088D00C2A7D2A6120710C2A722CC
:100809007F381208837F0C1208837F061208837FC2
:09081900011208837F80020883AC
:10078E008B088A09890A120883AB08AA09A90A12DA
:10079E0003B6D39400748094804016050AE50A705F
:1007AE0002050914F91203B6FF12088D12071D80F7
:0207BE00D8223F
:1007EB00D3EF9400EE940040147D6E7C00ED1D70F1
:0D07FB00011CED4C70F7EF1F70E61E80E34F
:0108080022CD
:1007C000C2B77F467E00EF1FAC0670011E4C70F66C
:1007D000D2B7FEFF30B7110FBF00010ED3EF9488E0
:0A07E000EE941340EF7F00227F012A
:0107EA0022EC
:0C06CE001207C07F017E001207EB7FCCFA
:1006DA00E4FBFAC2B7050AE50A70020509EF1392AC
:1006EA00B7750900750A06E50A150AAC09700215FC
:1006FA00094C70F3D2B7EFC313FF0BBB00010AEB2F
:05070A0064084A70CEF6
:01070F0022C7
:100750007D087C00C2B70FBF0000D2B70FBF0000FA
:100760000FBF0000A2B7E433C43333335480FBE936
:10077000C3134BF97E007F04EF1FAA0670011E4AC7
:0D07800070F6ED1D70011CED4C70C9AF014D
:01078D002249
:0808A0001206CE7F440206DAC5
:0808A8001206CE7FBE0206DA43
:10082200E4FFFE1208A01208A81207508F08120750
:0608320050EFFEE508FF97
:01083800229D
:0808B0008F993099FDC29922D5
:10084F001203B6FF600C1208B0740129F9E43AFAEA
:03085F0080EE2206
:100003000202ABE86480F8E933E83360110460F07E
:10001300ED33EC337009E8FCE9FDEAFEEBFF220463
:1000230060DED3EB9FEA9EE99DE8C2E78CF0C2F75E
:1000330095F0400CE8CCF8E9CDF9EACEFAEBCFFB2A
:1000430012027685D0F05804700320D5B3E804700B
:10005300075002B2D50202B592D5EC0460F7E4CCA6
:10006300C0E0C398F8603B94186008400DD0E0FBF3
:1000730002028DE4FBFAC9FC8028E830E406E4C9F7
:10008300FBE4CAFCE830E305E4C9CACBFCE8540747
:100093006010F8C3E913F9EA13FAEB13FBEC13FC52
:1000A300D8F130F52FC3E49CFCEF9BFFEE9AFEEDF5
:1000B30099FDD0E0FBEF4E4D4C701222DB030202A0
:1000C300B2EC2CFCEF33FFEE33FEED33FDED30E706
:1000D300EB02028DEF2BFFEE3AFEED39FDD0E0FB94
:1000E30050130BBB00030202B5ED13FDEE13FEEF3D
:0800F30013FFEC13FC02028D67
:1000FB00EC4D6011E8497017ED33EC3304600DE4FF
:10010B00FCFFFEFD22E933E8330470F80202AB1268
:10011B00027658046009E4CC248150062850090269
:10012B0002B52840030202B2C0E0EB4A7044B9802A
:10013B0006D0E0FB0202A1EF4E701CBD8008EBFF66
:10014B00EAFEE9FD80EBE98DF0A4FEE5F00201E4A7
:10015B00E9CDF9EAFEEBFFEF89F0A4FCE5F0CE89DF
:10016B00F0A42EFFE435F0CD89F0A42DFEE435F09C
:10017B008067EF4E7005BD80D780C3EF8BF0A4ACCA
:10018B00F0EE8BF0A42CFCE435F0F8EF8AF0A42C05
:10019B00E5F038FCE433CB8DF0A42CFCE5F03BF818
:1001AB00EE8AF0A42CFCE5F038F8E433CF89F0A408
:1001BB002CFCE5F038CF3400CE89F0A42FFFE5F00E
:1001CB003EFEE433C98DF0A42EFEE5F039CD8AF066
:1001DB00A42FFFE5F03EFEE43DFD33D0E0FB5007DE
:1001EB000BBB000F0202B5EC2CFCEF33FFEE33FE22
:0601FB00ED33FD02028D50
:1002010075F020800E75F010800575F0087D007E78
:10021100007F003392D530D503120405EC33401032
:10022100EF33FFEE33FEED33FDEC33FCD5F0ED2281
:0E023100E5F0247EA2D513CC92E7CDCEFF22BD
:10023F00EDD2E7CD33EC3392D524814006E4FFFEB7
:10024F00FDFC22FCE4CFCECDCC24E0501174FF8016
:10025F00EDC3CC13CCCD13CDCE13CECF13CF0470B3
:07026F00F030D5DE020405AA
:10027600E9D2E7C933E833F892D5EDD2E7CD33ECCE
:0702860033FC5002B2D52247
:10028D00EC30E7100FBF000C0EBE00080DBD0004D2
:10029D000BEB6014A2D5EB13FCED92E7FD2274FF7E
:1002AD00FCFDFEFF22E480F8A2D574FF13FC7D80D7
:0302BD00E480EFEB
:10060800020688E493A3F8E493A34003F68001F27A
:1006180008DFF48029E493A3F85407240CC8C333F3
:10062800C4540F4420C8834004F456800146F6DFC2
:10063800E4800B0102040810204080900897E47EB3
:10064800019360BCA3FF543F30E509541FFEE493B7
:10065800A360010ECF54C025E060A840B8E493A37E
:10066800FAE493A3F8E493A3C8C582C8CAC583CAA9
:10067800F0A3C8C582C8CAC583CADFE9DEE780BE61
:01089F000058
:1002C000E709F608DFFA8046E709F208DFFA803E20
:1002D00088828C83E709F0A3DFFA8032E309F6080D
:1002E000DFFA8078E309F208DFFA807088828C8375
:1002F000E309F0A3DFFA806489828A83E0A3F60829
:10030000DFFA805889828A83E0A3F208DFFA804C02
:1003100080D280FA80C680D4806980F280338010D9
:1003200080A680EA809A80A880DA80E280CA803342
:1003300089828A83ECFAE493A3C8C582C8CCC583BA
:10034000CCF0A3C8C582C8CCC583CCDFE9DEE7808A
:100350000D89828A83E493A3F608DFF9ECFAA9F009
:10036000EDFB2289828A83ECFAE0A3C8C582C8CC5F
:10037000C583CCF0A3C8C582C8CCC583CCDFEADE78
:10038000E880DB89828A83E493A3F208DFF980CCDA
:1003900088F0EF60010E4E60C388F0ED2402B404D3
:1003A0000050B9F582EB2402B4040050AF2323457A
:0603B0008223900310738C
:1003B600BB010689828A83E0225002E722BBFE0245
:0903C600E32289828A83E4932278
:1003CF00C2D5EC30E709B2D5E4C39DFDE49CFCEE49
:1003DF0030E715B2D5E4C39FFFE49EFE120413C3AA
:1003EF00E49DFDE49CFC800312041330D507C3E4A5
:0603FF009FFFE49EFE22B8
:0E040500C3E49FFFE49EFEE49DFDE49CFC2208
:10041300BC000BBE0029EF8DF084FFADF022E4CCCD
:10042300F875F008EF2FFFEE33FEEC33FCEE9DEC96
:10043300984005FCEE9DFE0FD5F0E9E4CEFD22EDDC
:10044300F8F5F0EE8420D21CFEADF075F008EF2F26
:10045300FFED33FD4007985006D5F0F222C398FD17
:050463000FD5F0EA22B4
:00000001FF
